{
  "_format": "hh-sol-artifact-1",
  "contractName": "EventManager",
  "sourceName": "src/contracts/dca/eventManager/EventManager.sol",
  "abi": [
    {
      "inputs": [
        {
          "internalType": "address",
          "name": "owner",
          "type": "address"
        },
        {
          "internalType": "address",
          "name": "factoryAddress",
          "type": "address"
        }
      ],
      "stateMutability": "nonpayable",
      "type": "constructor"
    },
    {
      "anonymous": false,
      "inputs": [
        {
          "indexed": true,
          "internalType": "bytes32",
          "name": "role",
          "type": "bytes32"
        },
        {
          "indexed": true,
          "internalType": "bytes32",
          "name": "previousAdminRole",
          "type": "bytes32"
        },
        {
          "indexed": true,
          "internalType": "bytes32",
          "name": "newAdminRole",
          "type": "bytes32"
        }
      ],
      "name": "RoleAdminChanged",
      "type": "event"
    },
    {
      "anonymous": false,
      "inputs": [
        {
          "indexed": true,
          "internalType": "bytes32",
          "name": "role",
          "type": "bytes32"
        },
        {
          "indexed": true,
          "internalType": "address",
          "name": "account",
          "type": "address"
        },
        {
          "indexed": true,
          "internalType": "address",
          "name": "sender",
          "type": "address"
        }
      ],
      "name": "RoleGranted",
      "type": "event"
    },
    {
      "anonymous": false,
      "inputs": [
        {
          "indexed": true,
          "internalType": "bytes32",
          "name": "role",
          "type": "bytes32"
        },
        {
          "indexed": true,
          "internalType": "address",
          "name": "account",
          "type": "address"
        },
        {
          "indexed": true,
          "internalType": "address",
          "name": "sender",
          "type": "address"
        }
      ],
      "name": "RoleRevoked",
      "type": "event"
    },
    {
      "inputs": [],
      "name": "ACCESS_MANAGER_ROLE",
      "outputs": [
        {
          "internalType": "bytes32",
          "name": "",
          "type": "bytes32"
        }
      ],
      "stateMutability": "view",
      "type": "function"
    },
    {
      "inputs": [],
      "name": "DEFAULT_ADMIN_ROLE",
      "outputs": [
        {
          "internalType": "bytes32",
          "name": "",
          "type": "bytes32"
        }
      ],
      "stateMutability": "view",
      "type": "function"
    },
    {
      "inputs": [],
      "name": "EVENT_OPERATOR_ROLE",
      "outputs": [
        {
          "internalType": "bytes32",
          "name": "",
          "type": "bytes32"
        }
      ],
      "stateMutability": "view",
      "type": "function"
    },
    {
      "inputs": [
        {
          "internalType": "address",
          "name": "vaultAddress",
          "type": "address"
        },
        {
          "internalType": "uint256",
          "name": "timestamp",
          "type": "uint256"
        },
        {
          "internalType": "uint256",
          "name": "blockHeight",
          "type": "uint256"
        }
      ],
      "name": "createDcaVaultCreatedEvent",
      "outputs": [],
      "stateMutability": "nonpayable",
      "type": "function"
    },
    {
      "inputs": [
        {
          "internalType": "address",
          "name": "vaultAddress",
          "type": "address"
        },
        {
          "internalType": "uint256",
          "name": "sent",
          "type": "uint256"
        },
        {
          "internalType": "uint256",
          "name": "received",
          "type": "uint256"
        },
        {
          "internalType": "uint256",
          "name": "timestamp",
          "type": "uint256"
        },
        {
          "internalType": "uint256",
          "name": "blockHeight",
          "type": "uint256"
        }
      ],
      "name": "createDcaVaultExecutionCompletedEvent",
      "outputs": [],
      "stateMutability": "nonpayable",
      "type": "function"
    },
    {
      "inputs": [
        {
          "internalType": "address",
          "name": "vaultAddress",
          "type": "address"
        },
        {
          "internalType": "uint256",
          "name": "amount",
          "type": "uint256"
        },
        {
          "internalType": "uint256",
          "name": "timestamp",
          "type": "uint256"
        },
        {
          "internalType": "uint256",
          "name": "blockHeight",
          "type": "uint256"
        }
      ],
      "name": "createDcaVaultFundsDepositedEvent",
      "outputs": [],
      "stateMutability": "nonpayable",
      "type": "function"
    },
    {
      "inputs": [
        {
          "internalType": "uint256",
          "name": "startIndex",
          "type": "uint256"
        },
        {
          "internalType": "uint256",
          "name": "limit",
          "type": "uint256"
        }
      ],
      "name": "getAddressesWithEvents",
      "outputs": [
        {
          "internalType": "address[]",
          "name": "",
          "type": "address[]"
        }
      ],
      "stateMutability": "view",
      "type": "function"
    },
    {
      "inputs": [
        {
          "internalType": "address",
          "name": "vaultAddress",
          "type": "address"
        },
        {
          "internalType": "uint256",
          "name": "startIndex",
          "type": "uint256"
        },
        {
          "internalType": "uint256",
          "name": "limit",
          "type": "uint256"
        }
      ],
      "name": "getDcaVaultCreatedEvents",
      "outputs": [
        {
          "components": [
            {
              "internalType": "address",
              "name": "vaultAddress",
              "type": "address"
            },
            {
              "internalType": "uint256",
              "name": "timestamp",
              "type": "uint256"
            },
            {
              "internalType": "uint256",
              "name": "blockHeight",
              "type": "uint256"
            }
          ],
          "internalType": "struct DcaVaultCreated[]",
          "name": "",
          "type": "tuple[]"
        }
      ],
      "stateMutability": "view",
      "type": "function"
    },
    {
      "inputs": [
        {
          "internalType": "address",
          "name": "vaultAddress",
          "type": "address"
        },
        {
          "internalType": "uint256",
          "name": "startIndex",
          "type": "uint256"
        },
        {
          "internalType": "uint256",
          "name": "limit",
          "type": "uint256"
        }
      ],
      "name": "getDcaVaultExecutionCompletedEvents",
      "outputs": [
        {
          "components": [
            {
              "internalType": "address",
              "name": "vaultAddress",
              "type": "address"
            },
            {
              "internalType": "uint256",
              "name": "sent",
              "type": "uint256"
            },
            {
              "internalType": "uint256",
              "name": "received",
              "type": "uint256"
            },
            {
              "internalType": "uint256",
              "name": "timestamp",
              "type": "uint256"
            },
            {
              "internalType": "uint256",
              "name": "blockHeight",
              "type": "uint256"
            }
          ],
          "internalType": "struct DcaVaultExecutionCompleted[]",
          "name": "",
          "type": "tuple[]"
        }
      ],
      "stateMutability": "view",
      "type": "function"
    },
    {
      "inputs": [
        {
          "internalType": "address",
          "name": "vaultAddress",
          "type": "address"
        },
        {
          "internalType": "uint256",
          "name": "startIndex",
          "type": "uint256"
        },
        {
          "internalType": "uint256",
          "name": "limit",
          "type": "uint256"
        }
      ],
      "name": "getDcaVaultFundsDepositedEvents",
      "outputs": [
        {
          "components": [
            {
              "internalType": "address",
              "name": "vaultAddress",
              "type": "address"
            },
            {
              "internalType": "uint256",
              "name": "amount",
              "type": "uint256"
            },
            {
              "internalType": "uint256",
              "name": "timestamp",
              "type": "uint256"
            },
            {
              "internalType": "uint256",
              "name": "blockHeight",
              "type": "uint256"
            }
          ],
          "internalType": "struct DcaVaultFundsDeposited[]",
          "name": "",
          "type": "tuple[]"
        }
      ],
      "stateMutability": "view",
      "type": "function"
    },
    {
      "inputs": [
        {
          "internalType": "bytes32",
          "name": "role",
          "type": "bytes32"
        }
      ],
      "name": "getRoleAdmin",
      "outputs": [
        {
          "internalType": "bytes32",
          "name": "",
          "type": "bytes32"
        }
      ],
      "stateMutability": "view",
      "type": "function"
    },
    {
      "inputs": [
        {
          "internalType": "address",
          "name": "contractAddress",
          "type": "address"
        }
      ],
      "name": "grantEventOperatorRole",
      "outputs": [],
      "stateMutability": "nonpayable",
      "type": "function"
    },
    {
      "inputs": [
        {
          "internalType": "bytes32",
          "name": "role",
          "type": "bytes32"
        },
        {
          "internalType": "address",
          "name": "account",
          "type": "address"
        }
      ],
      "name": "grantRole",
      "outputs": [],
      "stateMutability": "nonpayable",
      "type": "function"
    },
    {
      "inputs": [
        {
          "internalType": "bytes32",
          "name": "role",
          "type": "bytes32"
        },
        {
          "internalType": "address",
          "name": "account",
          "type": "address"
        }
      ],
      "name": "hasRole",
      "outputs": [
        {
          "internalType": "bool",
          "name": "",
          "type": "bool"
        }
      ],
      "stateMutability": "view",
      "type": "function"
    },
    {
      "inputs": [
        {
          "internalType": "bytes32",
          "name": "role",
          "type": "bytes32"
        },
        {
          "internalType": "address",
          "name": "account",
          "type": "address"
        }
      ],
      "name": "renounceRole",
      "outputs": [],
      "stateMutability": "nonpayable",
      "type": "function"
    },
    {
      "inputs": [
        {
          "internalType": "bytes32",
          "name": "role",
          "type": "bytes32"
        },
        {
          "internalType": "address",
          "name": "account",
          "type": "address"
        }
      ],
      "name": "revokeRole",
      "outputs": [],
      "stateMutability": "nonpayable",
      "type": "function"
    },
    {
      "inputs": [
        {
          "internalType": "bytes4",
          "name": "interfaceId",
          "type": "bytes4"
        }
      ],
      "name": "supportsInterface",
      "outputs": [
        {
          "internalType": "bool",
          "name": "",
          "type": "bool"
        }
      ],
      "stateMutability": "view",
      "type": "function"
    }
  ],
  "bytecode": "0x6080346200014d5762001ae490601f38839003908101601f19168201906001600160401b038211838310176200015257808391604095869485528339810103126200014d576200004f8162000168565b6200005e602080930162000168565b9060009283805283815284842060018060a01b0380931690818652825260ff86862054161562000114575b507f46f3eccdd88dd62792ae8eed1be7b9b658477566c49fd85b0d08cf44261c920891828552848252858520931692838552815260ff858520541615620000da575b845161194690816200017e8239f35b8184528381528484209083855252838320600160ff1982541617905560008051602062001ac4833981519152339380a438808080620000cb565b8480528482528585208186528252858520805460ff1916600117905533908560008051602062001ac48339815191528180a43862000089565b600080fd5b634e487b7160e01b600052604160045260246000fd5b51906001600160a01b03821682036200014d5756fe60806040908082526004918236101561001757600080fd5b600091823560e01c90816301ffc9a714610ad2575080630a7f8427146109ea578063248a9ca3146109c057806324e77baf146106a35780632f2ff15d146105fa57806336568abe1461056957806337cbe73c146104fa5780636aba9f5a1461041d578063716a0ee9146103a357806391d148541461035d578063a217fddf14610343578063a3b546f214610309578063bd4afe8b14610282578063c2078f7e14610219578063c608fb52146101df578063d547741f1461019d5763de79f770146100e057600080fd5b34610199576100ee36610b57565b916100f7610b81565b6001600160a01b039081168086526001602052848620855195909161011b87610ef8565b8652602086019384528501938452805490600160401b821015610186579061014891600182018155611145565b949094610174575184546001600160a01b03191691161783555160018301555160029190910155905080f35b634e487b7160e01b8652858752602486fd5b634e487b7160e01b875260418852602487fd5b5080fd5b508290346101db57806003193601126101db576101d891356101d360016101c2610b41565b938387528660205286200154610d7c565b610f52565b80f35b8280fd5b5034610199578160031936011261019957602090517feb63d8c478db91b53fed83636d78b3829638e48022baf69b9cc0c68eabd2f2608152f35b5082346101db57816003193601126101db57610239906024359035611801565b815192839260208080860192818752855180945286019401925b82811061026257505050500390f35b83516001600160a01b031685528695509381019392810192600101610253565b5090346103065761029b61029536610b57565b91611635565b8251916020808401908085528351809252808686019401925b8281106102c15785850386f35b835180516001600160a01b0316865280830151868401528781015188870152606080820151908701526080908101519086015260a090940193928101926001016102b4565b80fd5b5034610199578160031936011261019957602090517f46f3eccdd88dd62792ae8eed1be7b9b658477566c49fd85b0d08cf44261c92088152f35b503461019957816003193601126101995751908152602090f35b5082346101db57816003193601126101db578160209360ff9261037e610b41565b903582528186528282206001600160a01b039091168252855220549151911615158152f35b509034610306576103bc6103b636610b57565b91611448565b8251916020808401908085528351809252808686019401925b8281106103e25785850386f35b835180516001600160a01b031686528083015186840152878101518887015260609081015190860152608090940193928101926001016103d5565b503461019957608036600319011261019957610437610b26565b90610440610b81565b6001600160a01b0391821680845260026020528184208251939092909161046685610edc565b845260208401906024358252840191604435835260608501936064358552805490600160401b8210156104e757906104a391600182018155611161565b9590956104d5575185546001600160a01b03191691161784555160018401555160028301555160039190910155905080f35b634e487b7160e01b8752868852602487fd5b634e487b7160e01b885260418952602488fd5b5090346103065761051361050d36610b57565b9161122d565b8251916020808401908085528351809252808686019401925b8281106105395785850386f35b835180516001600160a01b031686528083015186840152870151878601526060909401939281019260010161052c565b509134610199578260031936011261019957610583610b41565b90336001600160a01b0383160361059f57906101d89135610f52565b608490602085519162461bcd60e51b8352820152602f60248201527f416363657373436f6e74726f6c3a2063616e206f6e6c792072656e6f756e636560448201526e103937b632b9903337b91039b2b63360891b6064820152fd5b5082346101db57816003193601126101db573590610616610b41565b908284528360205261062d60018286200154610d7c565b82845260208481528185206001600160a01b039093168086529290528084205460ff1615610659578380f35b828452836020528084208285526020528320600160ff1982541617905533917f2f8788117e7eff1d82e926ec794901d17c78024a50270940304540a733656f0d8480a48180808380f35b5082346101db57602090816003193601126109bc576106c0610b26565b927f46f3eccdd88dd62792ae8eed1be7b9b658477566c49fd85b0d08cf44261c9208808652858452818620338752845260ff8287205416156107e057507feb63d8c478db91b53fed83636d78b3829638e48022baf69b9cc0c68eabd2f260908186528584528086209360018060a01b0380961694858852815260ff828820541615610796575b50505060055490600160401b821015610783575080600161076a920160055561110e565b909283549160031b90811b9283911b1691191617905580f35b634e487b7160e01b855260419052602484fd5b82875286815281872090858852528520600160ff198254161790558233917f2f8788117e7eff1d82e926ec794901d17c78024a50270940304540a733656f0d8780a4848080610746565b856107ea33611010565b918351906107f782610edc565b604282528682019260603685378251156109a957603084538251906001918210156109965790607860218501536041915b81831161092b575050506108ea57836108ba604888956108dc956108ab9560449a99519687936108828b86019b76020b1b1b2b9b9a1b7b73a3937b61d1030b1b1b7bab73a1604d1b8d528251928391603789019101610e87565b8401917001034b99036b4b9b9b4b733903937b6329607d1b603784015251809386840190610e87565b01036028810185520183610f30565b5195869462461bcd60e51b865285015251809281602486015285850190610e87565b601f01601f19168101030190fd5b606485878087519262461bcd60e51b845283015260248201527f537472696e67733a20686578206c656e67746820696e73756666696369656e746044820152fd5b909192600f81166010811015610983576f181899199a1a9b1b9c1cb0b131b232b360811b901a61095b8587610fe9565b53881c92801561097057600019019190610828565b634e487b7160e01b825260118952602482fd5b634e487b7160e01b835260328a52602483fd5b634e487b7160e01b815260328852602490fd5b634e487b7160e01b815260328752602490fd5b8380fd5b5082346101db5760203660031901126101db57816020936001923581528085522001549051908152f35b5082346101db5760a03660031901126101db57610a05610b26565b91610a0e610b81565b6001600160a01b03928316808552600360205281852082519490929091610a3486610eaa565b85526020850190602435825285019060443582526060860192606435845260808701946084358652805490600160401b821015610abf5790610a7b9160018201815561117d565b979097610aad575187546001600160a01b03191691161786555160018601555160028501555160038401555191015580f35b634e487b7160e01b8952888752602489fd5b634e487b7160e01b8a526041885260248afd5b839085346101db5760203660031901126101db573563ffffffff60e01b81168091036101db5760209250637965db0b60e01b8114908115610b15575b5015158152f35b6301ffc9a760e01b14905083610b0e565b600435906001600160a01b0382168203610b3c57565b600080fd5b602435906001600160a01b0382168203610b3c57565b6060906003190112610b3c576004356001600160a01b0381168103610b3c57906024359060443590565b3360009081527f5ab737572feaddb3db35fbb6c632d569fe307ba651e0efd31a131ab404291e506020908152604080832054909291907feb63d8c478db91b53fed83636d78b3829638e48022baf69b9cc0c68eabd2f2609060ff1615610be75750505050565b610bf033611010565b90845190610bfd82610edc565b60428252838201946060368737825115610d685760308653825190600191821015610d685790607860218501536041915b818311610cfa57505050610cb85784610c9460486108dc936044979851988991610c858984019876020b1b1b2b9b9a1b7b73a3937b61d1030b1b1b7bab73a1604d1b8a52610882815180928d603789019101610e87565b01036028810189520187610f30565b5194859362461bcd60e51b8552600485015251809281602486015285850190610e87565b60648386519062461bcd60e51b825280600483015260248201527f537472696e67733a20686578206c656e67746820696e73756666696369656e746044820152fd5b909192600f81166010811015610d54576f181899199a1a9b1b9c1cb0b131b232b360811b901a610d2a8587610fe9565b5360041c928015610d4057600019019190610c2e565b634e487b7160e01b82526011600452602482fd5b634e487b7160e01b83526032600452602483fd5b634e487b7160e01b81526032600452602490fd5b60008181526020818152604092838320338452825260ff848420541615610da35750505050565b610dac33611010565b90845190610db982610edc565b60428252838201946060368737825115610d685760308653825190600191821015610d685790607860218501536041915b818311610e4157505050610cb85784610c9460486108dc936044979851988991610c858984019876020b1b1b2b9b9a1b7b73a3937b61d1030b1b1b7bab73a1604d1b8a52610882815180928d603789019101610e87565b909192600f81166010811015610d54576f181899199a1a9b1b9c1cb0b131b232b360811b901a610e718587610fe9565b5360041c928015610d4057600019019190610dea565b60005b838110610e9a5750506000910152565b8181015183820152602001610e8a565b60a0810190811067ffffffffffffffff821117610ec657604052565b634e487b7160e01b600052604160045260246000fd5b6080810190811067ffffffffffffffff821117610ec657604052565b6060810190811067ffffffffffffffff821117610ec657604052565b6020810190811067ffffffffffffffff821117610ec657604052565b90601f8019910116810190811067ffffffffffffffff821117610ec657604052565b9060009180835282602052604083209160018060a01b03169182845260205260ff604084205416610f8257505050565b80835282602052604083208284526020526040832060ff1981541690557ff6391f5c32d9c69d2a47ea670b442974b53935d1edc7fd64eb21e047a839171b339380a4565b91908201809211610fd357565b634e487b7160e01b600052601160045260246000fd5b908151811015610ffa570160200190565b634e487b7160e01b600052603260045260246000fd5b6040519061101d82610ef8565b602a8252602082016040368237825115610ffa57603090538151600190811015610ffa57607860218401536029905b8082116110a057505061105c5790565b606460405162461bcd60e51b815260206004820152602060248201527f537472696e67733a20686578206c656e67746820696e73756666696369656e746044820152fd5b9091600f811660108110156110f9576f181899199a1a9b1b9c1cb0b131b232b360811b901a6110cf8486610fe9565b5360041c9180156110e457600019019061104c565b60246000634e487b7160e01b81526011600452fd5b60246000634e487b7160e01b81526032600452fd5b600554811015610ffa5760056000527f036b6384b5eca791c62761152d0c79bb0604c104a5fb6f4eb0703f3154bb3db00190600090565b8054821015610ffa576000526003602060002091020190600090565b8054821015610ffa5760005260206000209060021b0190600090565b8054821015610ffa576000526005602060002091020190600090565b156111a057565b60405162461bcd60e51b815260206004820152601c60248201527f6c696d6974206d7573742062652067726561746572207468616e2030000000006044820152606490fd5b67ffffffffffffffff8111610ec65760051b60200190565b91908203918211610fd357565b6000198114610fd35760010190565b8051821015610ffa5760209160051b010190565b611238831515611199565b60018060a01b0380911692600092848452600190602090828252604093848720541561143557878752838352848720546000199190828101908111611421578311611408576112879083610fc6565b8181019081116113f4578089895285855286892054908382019182116113e0579084929110156113ac575b6112bc92506111fd565b95838701809711611398576112d0876111e5565b976112dd8651998a610f30565b878952601f196112ec896111e5565b0184835b82811061137257505050815b88811061130f5750505050505050505090565b61136d9082845286865261132f8885206113298388610fc6565b90611145565b50600289519161133e83610ef8565b8b8154168352898101548984015201548982015261135c828d611219565b52611367818c611219565b5061120a565b6112fc565b885182828e61138084610ef8565b8884528883850152888d8501520101520185906112f0565b634e487b7160e01b81526011600452602490fd5b5050878752838352848720549081019081116113cc57816112bc916112b2565b634e487b7160e01b87526011600452602487fd5b634e487b7160e01b8a52601160045260248afd5b634e487b7160e01b88526011600452602488fd5b505050505091925050519061141c82610f14565b815290565b634e487b7160e01b89526011600452602489fd5b5050505091925050519061141c82610f14565b611453831515611199565b60018060a01b0380911692600090848252600260208181526040928385205415611622578785528282528385205460001991908281019081116113cc57881161160e576114a09088610fc6565b8181019081116115fa578089875284845285872054908382019182116113f4579089929110156115c6575b6114d592506111fd565b95600194858801809811611398576114ec886111e5565b986114f986519a8b610f30565b888a52601f196115088a6111e5565b0184835b82811061159a5750505089825b8a811061152e57505050505050505050505090565b89611588826115939460038c8e61155b8c8f8f858f8f938b93611555958352522092610fc6565b90611161565b5091519661156888610edc565b82541687528101548c8701528c8101548e87015201546060850152611219565b52611367818d611219565b8a90611519565b885182828f6115a884610edc565b8884528883850152888d85015288606085015201015201859061150c565b5050878552828252838520549081019081116115e657866114d5916114cb565b634e487b7160e01b85526011600452602485fd5b634e487b7160e01b86526011600452602486fd5b505050509250925050519061141c82610f14565b5050509250925050519061141c82610f14565b611640831515611199565b60018060a01b0380911692600090848252600390602082815260409182852054156117ee578785528382528285205460001991908281019081116113cc5788116117da5761168e9088610fc6565b8181019081116115fa578089875285845284872054908382019182116113f4579089929110156117ba575b6116c392506111fd565b95600194858801809811611398576116da886111e5565b986116e785519a8b610f30565b888a52601f196116f68a6111e5565b0184835b8281106117885750505089825b8a811061171c57505050505050505050505090565b89611588826117819460048d6117498b8f8f8f908e611743938f938b948352522092610fc6565b9061117d565b50908d519661175788610eaa565b82541687528101548c87015260028101548d8701528d810154606087015201546080850152611219565b8a90611707565b875182828f61179684610eaa565b8884528883850152888c8501528860608501528860808501520101520185906116fa565b5050878552838252828520549081019081116115e657866116c3916116b9565b505050935050925050519061141c82610f14565b5050935050925050519061141c82610f14565b919061180e811515611199565b60055480156119005760001991818301918211610fd3578185116118e3576118369085610fc6565b918201918211610fd357611855918491808210156118db575b506111fd565b60018101809111610fd357611869816111e5565b906118776040519283610f30565b808252601f19611886826111e5565b0136602084013760005b81811061189e575090925050565b806118b46118af6118d69388610fc6565b61110e565b905460039190911b1c6001600160a01b03166118d08286611219565b5261120a565b611890565b90503861184f565b50505090506040516118f481610f14565b60008152600036813790565b505090506040516118f481610f1456fea264697066735822122055ac0777a2f04781d70144f1d9ef6fbc09bfa407c67b857326da8640516b3fd164736f6c634300081100332f8788117e7eff1d82e926ec794901d17c78024a50270940304540a733656f0d",
  "linkReferences": {},
  "deployedLinkReferences": {}
}