{
  "_format": "hh-sol-artifact-1",
  "contractName": "Factory",
  "sourceName": "src/contracts/dca/factory/Factory.sol",
  "abi": [
    {
      "inputs": [
        {
          "internalType": "address",
          "name": "addressProvider",
          "type": "address"
        }
      ],
      "stateMutability": "nonpayable",
      "type": "constructor"
    },
    {
      "anonymous": false,
      "inputs": [
        {
          "indexed": false,
          "internalType": "address",
          "name": "vaultAddress",
          "type": "address"
        }
      ],
      "name": "VaultCreated",
      "type": "event"
    },
    {
      "inputs": [
        {
          "components": [
            {
              "internalType": "address",
              "name": "owner",
              "type": "address"
            },
            {
              "internalType": "address",
              "name": "tokenIn",
              "type": "address"
            },
            {
              "internalType": "address",
              "name": "tokenOut",
              "type": "address"
            },
            {
              "internalType": "uint256",
              "name": "swapAmount",
              "type": "uint256"
            },
            {
              "internalType": "uint256",
              "name": "timeInterval",
              "type": "uint256"
            },
            {
              "internalType": "uint256",
              "name": "targetTime",
              "type": "uint256"
            },
            {
              "internalType": "enum SwapAdjustmentTypes",
              "name": "swapAdjustmentType",
              "type": "uint8"
            },
            {
              "internalType": "enum PreSwapAutomationTypes",
              "name": "preSwapAutomationType",
              "type": "uint8"
            },
            {
              "components": [
                {
                  "internalType": "enum PostSwapAutomationTypes",
                  "name": "postSwapAutomationType",
                  "type": "uint8"
                },
                {
                  "internalType": "address",
                  "name": "destination",
                  "type": "address"
                },
                {
                  "internalType": "uint256",
                  "name": "basisPoints",
                  "type": "uint256"
                }
              ],
              "internalType": "struct PostSwapAutomationParams[]",
              "name": "postSwapAutomationParams",
              "type": "tuple[]"
            },
            {
              "internalType": "enum FinaliserTypes",
              "name": "finaliserType",
              "type": "uint8"
            },
            {
              "internalType": "enum ConditionTypes",
              "name": "triggerCreationConditionType",
              "type": "uint8"
            },
            {
              "internalType": "enum ConditionTypes",
              "name": "performSwapConditionType",
              "type": "uint8"
            },
            {
              "internalType": "enum ConditionTypes",
              "name": "finaliseVaultConditionType",
              "type": "uint8"
            },
            {
              "internalType": "bool",
              "name": "simulation",
              "type": "bool"
            },
            {
              "internalType": "address",
              "name": "referenceVaultAddress",
              "type": "address"
            }
          ],
          "internalType": "struct CreateVaultParams",
          "name": "createVaultParams",
          "type": "tuple"
        }
      ],
      "name": "createVault",
      "outputs": [
        {
          "internalType": "address",
          "name": "",
          "type": "address"
        }
      ],
      "stateMutability": "nonpayable",
      "type": "function"
    },
    {
      "inputs": [
        {
          "internalType": "address",
          "name": "owner",
          "type": "address"
        }
      ],
      "name": "getVaultsByAddress",
      "outputs": [
        {
          "internalType": "contract Vault[]",
          "name": "",
          "type": "address[]"
        }
      ],
      "stateMutability": "view",
      "type": "function"
    }
  ],
  "bytecode": "0x6080346100a1576001600160401b0390601f612ae738819003918201601f19168301918483118484101761008b578084926020946040528339810103126100a157516001600160a01b03811691908290036100a157604051602081019182118183101761008b5782916040525260018060a01b03196000541617600055604051612a4090816100a78239f35b634e487b7160e01b600052604160045260246000fd5b600080fdfe610120604052600436101561001357600080fd5b60008061010052803560e01c806312fa145a1461010b5763b11e2beb1461003957600080fd5b346101045760209081600319360112610104576001600160a01b039060043582811691908290036101015750829061010051526001808252604061010051209260405180848654918281520190819661010051526101005190868220915b8181106100ec57505050816100ad9103826110e8565b60405193808501918186525180925260408501959261010051905b8382106100d55786880387f35b8451811688529682019693820193908501906100c8565b82548616845292870192918601918601610097565b80fd5b6101005180fd5b5034610101576003196020368201126110ba5767ffffffffffffffff600435116110ba576101e090600435360301126101015750610300604052610152600480350161110a565b6101205261016460246004350161110a565b6101405261017660043560440161110a565b6101605260043560648101356101805260848101356101a05260a48101356101c052600160c49091013510156101045760043560c48101356101e052600360e49091013510156101045760043560e48101356102005267ffffffffffffffff61010490910135116101045736600435610104810135016023011215610104576004803561010481013501013561020b81611123565b9061021960405192836110e8565b808252602082019036600435610104810135016060830201602401116101045760043561010481013501602401915b600435610104810135016060830201602401831061104f57610220849052600260043561012401351015610104576004356101248101356102405260056101449091013510156101045760043561014481013561026052600561016490910135101561010457600435610164810135610280526005610184909101351015610104576004356101848101356102a0526101a401358015159003610104576004356101a48101356102c0526102ff906101c40161110a565b6102e05260405167ffffffffffffffff611852820190811190821117610e6f576118526111b982396101005190806118528101039082f0908115611043575061010051546001600160a01b0390811660c0529081166080526102e0516102005191169061036b8161113b565b6040519163f812356960e01b83526080516004840152602483015261038f8161113b565b604482015260208160648173__$62d2bb7c16ea2e703029d6d894b39d09da$__5af4908115610bee576101005191611009575b506101e051906001821015610f0357604051916331c2bab160e21b835260c0516004840152602483015260208260448173__$63d2d45f0bcc17299329de7495d9517121$__5af4918215610bee576101005192610fcd575b50610240516002811015610f03576040519063733da9db60e11b82526080516004830152602482015260208160448173__$a52122b6ce1138c328b308246a77f065ff$__5af4908115610bee576101005191610f93575b50610260516005811015610f0357602061049f9160405180938192631b60980f60e11b83526004830161116f565b038173__$17868bac2f39e54f8eaf3522f4846cc1c4$__5af4908115610bee576101005191610f59575b5061028051906005821015610f035760206104f89260405180948192631b60980f60e11b83526004830161116f565b038173__$17868bac2f39e54f8eaf3522f4846cc1c4$__5af4918215610bee576101005192610f1d575b506102a051926005841015610f035760206105519460405180968192631b60980f60e11b83526004830161116f565b038173__$17868bac2f39e54f8eaf3522f4846cc1c4$__5af4938415610bee576101005194610ec7575b5061010061012001516040519063feab6d6960e01b8252604482016080516004840152604060248401528151809152602060648401920190610100515b818110610e895750505081806101005192038173__$62d2bb7c16ea2e703029d6d894b39d09da$__5af4908115610bee576101005191610d58575b506080610120015160e05260a061012001519560018060a01b03610120511697610100519860018060a01b038a541660018060a01b03602061012001511660018060a01b0360406101200151169160606101200151936101a0610120015115159c60018060a01b036101c06101200151169e6040518060a05267ffffffffffffffff6102008201918210911117610bc0575060a051610200810160405260e0519052602060a0510152604060a0510152606060a0510152608060a051015260a08051015260c060a051015260018060a01b031660e060a051015260018060a01b031661010060a051015261012060a051015260018060a01b031661014060a051015260018060a01b031661016060a051015260018060a01b031661018060a051015260018060a01b03166101a060a05101526101c060a05101526101e060a051015260405163ee9db7eb60e01b815260c05160048201526040602482015260a051516044820152602060a0510151606482015260018060a01b03604060a051015116608482015260018060a01b03606060a05101511660a482015260018060a01b03608060a05101511660c482015260018060a01b0360a0805101511660e482015260c060a051015161010482015260018060a01b0360e060a05101511661012482015260018060a01b0361010060a0510151166101448201528061012060a05101516102006101648301526102448201815180915260206102648401920190610100515b818110610d345760a0805161014001516001600160a01b039081166101848801528151610160015181166101a48801528151610180015181166101c488015281516101a0015181166101e488015281516101c00151151561020488015290516101e0015116610224860152846020818087038173__$61d19b6f65968051678b4a6a910ec4ce05$__5af4908115610bee576101005191610cf9575b5015610cb55760405163bcaa0c5560e01b815260048082015260208160248160c0515afa908115610bee576101005191610c7b575b506001600160a01b0381163b15610104576040516324e77baf60e01b815260805160048201526101005190918290602490829084906001600160a01b03165af18015610bee57610c6c575b5060405163bcaa0c5560e01b81526003600482015260208160248160c0515afa908115610bee576101005191610c32575b506001600160a01b0381163b1561010457604051630403595960e01b815260805160048201526101005190918290602490829084906001600160a01b03165af18015610bee57610c1c575b506080513b156101045760408051638956e86d60e01b815260206004820181905260a08051516024840152805182015160448401528051909301516001600160a01b03908116606484015283516060015181166084840152835160800151811660a48401528351840151811660c4840152835160c0015160e4840152835160e0015181166101048401528351610100908101519091166101248401529251610120015161020061014484015280516102248401819052935192936102448501939190920191905b818110610bfc57505060a0805161014001516001600160a01b039081166101648601528151610160015181166101848601528151610180015181166101a486015281516101a0015181166101c486015281516101c0015115156101e486015290516101e00151166102048401525061010051608051909183919082900390829084905af18015610bee57610bd8575b5060018060a01b03610120511661010051526001602052610100516040812080549168010000000000000000831015610bc0575060018201808255821015610ba6577f2e49a5810fda2439a23771848b4acec786b0a64d4de3d124ac57fc8739c388759160209161010051528161010051200160805190816bffffffffffffffffffffffff60a01b825416179055604051908152a160206040516080518152f35b634e487b7160e01b61010051526032600452602461010051fd5b634e487b7160e01b9052604160045261010051602490fd5b610be1906110be565b610100518015610b055780fd5b6040513d61010051823e3d90fd5b9091926020608082610c116001948851611182565b019401929101610a76565b610c25906110be565b6101005180156109af5780fd5b90506020813d602011610c64575b81610c4d602093836110e8565b8101031261010457610c5e9061115b565b81610964565b3d9150610c40565b610c75906110be565b80610933565b90506020813d602011610cad575b81610c96602093836110e8565b8101031261010457610ca79061115b565b816108e8565b3d9150610c89565b606460405162461bcd60e51b815260206004820152602060248201527f696e76616c6964206665652074616b696e6720636f6e66696775726174696f6e6044820152fd5b90506020813d602011610d2c575b81610d14602093836110e8565b810103126101045751801515810361010457816108b3565b3d9150610d07565b919350916020608082610d4a6001948851611182565b019401910191849392610818565b903d8091833e610d6881836110e8565b60208282810103126101045781519067ffffffffffffffff821161010457808301601f838501011215610104578183015190610da382611123565b93610db160405195866110e8565b828552602085019382820160208560071b8385010101116101045793602085830101945b60208560071b82850101018610610df257505050505050876105f3565b60808685850103126101045760405180608081011067ffffffffffffffff608083011117610e6f5760808101604052610e2a8761115b565b8152610e386020880161115b565b6020820152604087015160408201526060870151600381101561010457602093828592606060809501528152019601959150610dd5565b634e487b7160e01b61010051526041600452602461010051fd5b90919260206060600192604087518051610ea28161113b565b8352858060a01b038582015116858401520151604082015201940191019190916105b8565b9093506020813d602011610efb575b81610ee3602093836110e8565b8101031261010457610ef49061115b565b928661057b565b3d9150610ed6565b634e487b7160e01b61010051526021600452602461010051fd5b9091506020813d602011610f51575b81610f39602093836110e8565b8101031261010457610f4a9061115b565b9085610522565b3d9150610f2c565b90506020813d602011610f8b575b81610f74602093836110e8565b8101031261010457610f859061115b565b846104c9565b3d9150610f67565b90506020813d602011610fc5575b81610fae602093836110e8565b8101031261010457610fbf9061115b565b83610471565b3d9150610fa1565b9091506020813d602011611001575b81610fe9602093836110e8565b8101031261010457610ffa9061115b565b908261041a565b3d9150610fdc565b90506020813d60201161103b575b81611024602093836110e8565b81010312610104576110359061115b565b816103c2565b3d9150611017565b604051903d90823e3d90fd5b6060833603126101045760405180606081011067ffffffffffffffff606083011117610e6f5760608101604052600384351015610104576060602060249382938735815261109e83890161110a565b8382015260408801356040820152815201940193915050610248565b5080fd5b67ffffffffffffffff81116110d257604052565b634e487b7160e01b600052604160045260246000fd5b90601f8019910116810190811067ffffffffffffffff8211176110d257604052565b35906001600160a01b038216820361111e57565b600080fd5b67ffffffffffffffff81116110d25760051b60200190565b6003111561114557565b634e487b7160e01b600052602160045260246000fd5b51906001600160a01b038216820361111e57565b9190602083019260058210156111455752565b6060809160018060a01b038082511685526020820151166020850152604081015160408501520151916111b48361113b565b015256fe6080806040523461001657611836908161001c8239f35b600080fdfe608080604052600436101561001357600080fd5b600090813560e01c90816312065fe01461150e57508063254928d7146114eb5780636146195414610dcd5780638956e86d1461078b578063b6b55f25146104275763c3f909d41461006357600080fd5b3461042457806003193601126104245780610220604051610083816115cb565b8281528260208201528260408201528260608201528260808201528260a08201528260c08201528260e0820152826101008201526060610120820152826101408201528261016082015282610180820152826101a0820152826101c0820152826101e0820152826102008201520152604051906100ff826115cb565b6001546001600160a01b039081168352600254811660208401526003548116604084015260045460608401526005548116608084015260065460a084015260075460c0840152600854811660e084015260095416610100830152600a546101658161161e565b9061017360405192836115e8565b808252600a835282907fc65a7bb8d6351c1cf70c95a316cc6a92839c986682d98bc35f958f4883f9d2a8602084015b8284106103b35750505050610120838101918252600b546001600160a01b0390811661014080870191909152600c548216610160870152600d548216610180870152600e5482166101a0870152600f5482166101c08701526010546101e087015260115461020087015260125460ff161515610220870152604080516020808252885185168183015280890151851682840152918801518416606080830191909152880151608080830191909152880151841660a08281019190915288015160c08083019190915288015160e080830191909152880151841661010080830191909152880151909316938301939093529251610240938201939093528251610260820181905290936102808501939092019190815b81831061034d578580866102208a60018060a01b036101408201511661016085015260018060a01b036101608201511661018085015260018060a01b03610180820151166101a085015260018060a01b036101a0820151166101c085015260018060a01b036101c0820151166101e08501526101e081015161020085015261020081015182850152015115156102408301520390f35b909192936060855160018060a01b03815116835260018060a01b036020820151166020840152604081015160408401520151600381101561039f576060820152608001936020019260010191906102b7565b634e487b7160e01b83526021600452602483fd5b6040516103bf816115af565b82546001600160a01b03908116825260018401541660208201526002830154604082015260038084015460ff16908110156104105760019282602092606060049501528152019201930192906101a2565b634e487b7160e01b88526021600452602488fd5b80fd5b50346104245780602080600319360112610788576003546012546001600160a01b039291600435919084169060ff1615610731575b60085460405163095ea7b360e01b81529085166001600160a01b03811660048301526024820184905291849082908189816044810103925af180156106a257610714575b50836003541690803b15610710576040516311f9fbc960e21b81526001600160a01b039290921660048301526024820183905285908290604490829084905af19081156107055785916106f1575b505060015460405163bcaa0c5560e01b80825260048083015291851692908481602481875afa80156106e657869188916106c9575b501690813b156106c557869160848392604051948593849263355d4fad60e11b845230600485015260248401524260448401524360648401525af19081156106a25786916106ad575b508385600d5416602460405180948193631846d2f560e31b83523060048401525af19081156106a2578691610675575b506105a5578480f35b82906024604051809481938252600360048301525afa91821561066a57849261063d575b505016601154601054823b1561063857604051632e16ad3d60e11b8152306004820152602481019290925260448201529082908290606490829084905af1801561062d57610619575b8080808480f35b6106229061159b565b610424578038610612565b6040513d84823e3d90fd5b505050fd5b61065c9250803d10610663575b61065481836115e8565b8101906116ab565b38806105c9565b503d61064a565b6040513d86823e3d90fd5b6106959150843d861161069b575b61068d81836115e8565b8101906116ca565b3861059c565b503d610683565b6040513d88823e3d90fd5b6106b69061159b565b6106c157843861056c565b8480fd5b8680fd5b6106e09150863d88116106635761065481836115e8565b38610523565b6040513d89823e3d90fd5b6106fa9061159b565b6106385783386104ee565b6040513d87823e3d90fd5b8580fd5b61072a90843d861161069b5761068d81836115e8565b50386104a0565b6040516323b872dd60e01b815233600482015230602482015260448101839052838160648189865af180156106a25761076b575b5061045c565b61078190843d861161069b5761068d81836115e8565b5038610765565b50fd5b503461042457600319602036820112610d425767ffffffffffffffff8060043511610db357610200809260043536030112610db35760405191820182811082821117610db7576040526004356004013582526024600435013560208301526107f760446004350161160a565b604083015261080a60646004350161160a565b606083015261081d60846004350161160a565b608083015261083060a46004350161160a565b60a083015260c4600435013560c083015261084f60e46004350161160a565b60e08301526108636101046004350161160a565b6101008301526101246004350135908111610db3573660238260043501011215610db3576004818135010135906108998261161e565b916108a760405193846115e8565b80835260208301913660248360071b836004350101011161071057916024836004350101925b60248360071b826004350101018410610d4657505050506101208201526108f96101446004350161160a565b61014082015261090e6101646004350161160a565b6101608201526109236101846004350161160a565b6101808201526109386101a46004350161160a565b6101a08201526004356101c401358015159003610d42576101c460043501356101c082015261096c6101e46004350161160a565b6101e0820152815460ff8116610cfd5760ff1990811660019081178455606083015181546001600160a01b03199081166001600160a01b03928316179092556040840151600280548416918316919091179055608084015160038054841691831691909117905560a084015160058054841691831691909117905560c084015160075561010084015160088054841691831691909117905560e0840151600980548416918316919091179055610140840151600b8054841691831691909117905583516010556020840151601155610160840151600d80548416918316919091179055610180840151600e805484169183169190911790556101a0840151600f805484169183169190911790556101c08401516012805491151560ff1691909416179092556101e0830151600c80549092169216919091179055815b610120820151838151831015610b9357506020908260051b010151600a80549068010000000000000000821015610b7f57600182019055610ae89061165b565b610b6b57815181546001600160a01b039182166001600160a01b0319918216178355602084015160018401805491909316911617905560408201516002820155606090910151600391820191811015610b575790610b52929160ff80198354169116179055611636565b610aa8565b634e487b7160e01b85526021600452602485fd5b634e487b7160e01b85526004859052602485fd5b634e487b7160e01b86526041600452602486fd5b606084015160405163bcaa0c5560e01b8082526003600483015283926001600160a01b0316918790602081602481875afa908115610705578591610cde575b5060018060a01b03169060208101519051823b1561071057604051632e16ad3d60e11b8152306004820152602481019290925260448201529084908290606490829084905af190811561066a578491610cc6575b505060209060246040518094819382526004808301525afa90811561062d578291610ca7575b506001600160a01b0316803b1561078857604051630de79f7760e41b81523060048201524260248201524360448201529082908290606490829084905af1801561062d57610c975750f35b610ca09061159b565b6104245780f35b610cc0915060203d6020116106635761065481836115e8565b83610c4c565b610ccf9061159b565b610cda578285610c26565b5050fd5b610cf7915060203d6020116106635761065481836115e8565b86610bd2565b60405162461bcd60e51b815260206004820152601960248201527f7661756c7420616c726561647920696e697469616c697a6564000000000000006044820152606490fd5b5080fd5b6080843603126106c55760405191610d5d836115af565b610d668561160a565b8352610d746020860161160a565b602084015260408501356040840152600360608601351015610daf5760206080916024946060880135606082015281520194019391506108cd565b8780fd5b8280fd5b634e487b7160e01b600052604160045260246000fd5b503461042457806003193601126104245760015460405163bcaa0c5560e01b8082526003600483015283926001600160a01b0316602083602481845afa92831561066a5784936114ca575b50604051630f5b5c3360e41b8152306004820152602081602481886001600160a01b0389165af1908115610705578591611498575b50601155600e54604051631846d2f560e31b8152306004820152906020908290602490829089906001600160a01b03165af1908115610705578591611479575b50611020575b5050600d54604051631846d2f560e31b8152306004820152906020908290602490829087906001600160a01b03165af1908115611015578391610ff6575b50610f8a575b50600f54604051631846d2f560e31b81523060048201529160209183916024918391906001600160a01b03165af190811561062d578291610f6b575b50610f1b5780f35b600b5460015482916001600160a01b039081169116813b15610cda578291604483926040519485938492632d14caeb60e11b845260048401523060248401525af1801561062d57610c9757505080f35b610f84915060203d60201161069b5761068d81836115e8565b38610f13565b6011546010546001600160a01b0383163b1561063857604051632e16ad3d60e11b8152306004820152602481019290925260448201529082908290606490829084906001600160a01b03165af1801561062d5715610ed757610feb9061159b565b610424578038610ed7565b61100f915060203d60201161069b5761068d81836115e8565b38610ed1565b6040513d85823e3d90fd5b9190925061102c6116ef565b6008546003546001600160a01b0391821691879116823b15610d425760405163f3fef3a360e01b81526001600160a01b0391909116600482015260248101849052918290604490829084905af180156106a257611464575b5090849160ff601254166000146113b45760405185815260026004820152602081602481885afa90811561066a578491611395575b506001600160a01b0316935b60035460055460405163d5bcb9b560e01b81526001600160a01b0392831660048201529082166024820152604481018490526064810186905230608482015295602091879160a49183918991165af194851561066a578495611359575b50955061113581600496959496546116e2565b600455611144836006546116e2565b60065584955b600a548710156112a75761115d8761165b565b50546001600160a01b03169660026111748261165b565b500154858181020481148615171561129357879860ff60129997989954161561121b575b6005546001600160a01b031691813b15610daf576040516311f9fbc960e21b81526001600160a01b0393909316600484015261271090890204602483015286908290604490829084905af19081156106a2578691611207575b50506111fc90611636565b96509493929461114a565b6112109061159b565b6106c15784386111f1565b60055460405163095ea7b360e01b81526001600160a01b038381166004830152612710858c020460248301529091602091839160449183918d91165af1801561128857611269575b50611198565b6112819060203d60201161069b5761068d81836115e8565b5038611263565b6040513d8a823e3d90fd5b634e487b7160e01b88526011600452602488fd5b90919385965060209060246040518094819382526004808301525afa90811561070557859161133a575b506001600160a01b031691823b156106c15760a48592836040519586948593630a7f842760e01b8552306004860152602485015260448401524260648401524360848401525af190811561101557839115610e935761132f9061159b565b610788578138610e93565b611353915060203d6020116106635761065481836115e8565b386112d1565b935093506020833d60201161138d575b81611376602093836115e8565b81010312611388578592519338611122565b600080fd5b3d9150611369565b6113ae915060203d6020116106635761065481836115e8565b386110b9565b60405185815260016004820152602081602481885afa90811561066a578491611445575b5060035460405163095ea7b360e01b81526001600160a01b03928316600482018190526024820185905296929091602091839160449183918a91165af1801561070557611426575b506110c5565b61143e9060203d60201161069b5761068d81836115e8565b5038611420565b61145e915060203d6020116106635761065481836115e8565b386113d8565b611471909591929561159b565b939038611084565b611492915060203d60201161069b5761068d81836115e8565b38610e8d565b90506020813d6020116114c2575b816114b3602093836115e8565b810103126106c1575138610e4d565b3d91506114a6565b6114e491935060203d6020116106635761065481836115e8565b9138610e18565b503461042457806003193601126104245760206115066116ef565b604051908152f35b905034610d425781600319360112610d42576008546003546370a0823160e01b83526001600160a01b03908116600484015260209183916024918391165afa90811561062d578291611566575b602082604051908152f35b90506020813d8211611593575b81611580602093836115e8565b81010312610d425760209150513861155b565b3d9150611573565b67ffffffffffffffff8111610db757604052565b6080810190811067ffffffffffffffff821117610db757604052565b610240810190811067ffffffffffffffff821117610db757604052565b90601f8019910116810190811067ffffffffffffffff821117610db757604052565b35906001600160a01b038216820361138857565b67ffffffffffffffff8111610db75760051b60200190565b60001981146116455760010190565b634e487b7160e01b600052601160045260246000fd5b600a5481101561169557600a60005260021b7fc65a7bb8d6351c1cf70c95a316cc6a92839c986682d98bc35f958f4883f9d2a80190600090565b634e487b7160e01b600052603260045260246000fd5b9081602091031261138857516001600160a01b03811681036113885790565b90816020910312611388575180151581036113885790565b9190820180921161164557565b60018060a01b03806008541690806003541660405180936370a0823160e01b825282600483015281602460209687935afa9182156117c05784916000936117cc575b50600954600754604051632702288960e01b81526001600160a01b03909316600484015260248301529293909283911681600081604481015b03925af19283156117c05760009361178f575b505081811061178a575090565b905090565b8181949293943d83116117b9575b6117a781836115e8565b8101031261042457505190388061177d565b503d61179d565b6040513d6000823e3d90fd5b9182819492943d83116117f9575b6117e481836115e8565b8101031261042457505190839061176a611731565b503d6117da56fea26469706673582212209e5345af8cc375c0fa7c42254bcc5aaa62f1b2f14589d485e538ad5f8a3a0ba864736f6c63430008110033a2646970667358221220333c0ae3cd6d8c0c11db1c8ef606adb5065b7057d03538d0e52012c4ab1d977b64736f6c63430008110033",
  "linkReferences": {
    "src/contracts/dca/factory/libraries/AutomationBuilder.sol": {
      "AutomationBuilder": [
        {
          "length": 20,
          "start": 1091
        },
        {
          "length": 20,
          "start": 1652
        }
      ]
    },
    "src/contracts/dca/factory/libraries/ConditionBuilder.sol": {
      "ConditionBuilder": [
        {
          "length": 20,
          "start": 1354
        },
        {
          "length": 20,
          "start": 1443
        },
        {
          "length": 20,
          "start": 1532
        }
      ]
    },
    "src/contracts/dca/factory/libraries/FinaliserBuilder.sol": {
      "FinaliserBuilder": [
        {
          "length": 20,
          "start": 1266
        }
      ]
    },
    "src/contracts/dca/factory/libraries/SwapAdjustmentBuilder.sol": {
      "SwapAdjustmentBuilder": [
        {
          "length": 20,
          "start": 1179
        }
      ]
    },
    "src/contracts/dca/vault/libraries/Validation.sol": {
      "Validation": [
        {
          "length": 20,
          "start": 2356
        }
      ]
    }
  },
  "deployedLinkReferences": {
    "src/contracts/dca/factory/libraries/AutomationBuilder.sol": {
      "AutomationBuilder": [
        {
          "length": 20,
          "start": 924
        },
        {
          "length": 20,
          "start": 1485
        }
      ]
    },
    "src/contracts/dca/factory/libraries/ConditionBuilder.sol": {
      "ConditionBuilder": [
        {
          "length": 20,
          "start": 1187
        },
        {
          "length": 20,
          "start": 1276
        },
        {
          "length": 20,
          "start": 1365
        }
      ]
    },
    "src/contracts/dca/factory/libraries/FinaliserBuilder.sol": {
      "FinaliserBuilder": [
        {
          "length": 20,
          "start": 1099
        }
      ]
    },
    "src/contracts/dca/factory/libraries/SwapAdjustmentBuilder.sol": {
      "SwapAdjustmentBuilder": [
        {
          "length": 20,
          "start": 1012
        }
      ]
    },
    "src/contracts/dca/vault/libraries/Validation.sol": {
      "Validation": [
        {
          "length": 20,
          "start": 2189
        }
      ]
    }
  }
}