{
  "_format": "hh-sol-artifact-1",
  "contractName": "Factory",
  "sourceName": "src/contracts/dca/factory/Factory.sol",
  "abi": [
    {
      "inputs": [
        {
          "internalType": "address",
          "name": "addressProvider",
          "type": "address"
        }
      ],
      "stateMutability": "nonpayable",
      "type": "constructor"
    },
    {
      "anonymous": false,
      "inputs": [
        {
          "indexed": false,
          "internalType": "address",
          "name": "vaultAddress",
          "type": "address"
        }
      ],
      "name": "VaultCreated",
      "type": "event"
    },
    {
      "inputs": [
        {
          "components": [
            {
              "internalType": "address",
              "name": "owner",
              "type": "address"
            },
            {
              "internalType": "address",
              "name": "tokenIn",
              "type": "address"
            },
            {
              "internalType": "address",
              "name": "tokenOut",
              "type": "address"
            },
            {
              "internalType": "uint256",
              "name": "swapAmount",
              "type": "uint256"
            },
            {
              "internalType": "uint256",
              "name": "timeInterval",
              "type": "uint256"
            },
            {
              "internalType": "uint256",
              "name": "targetTime",
              "type": "uint256"
            },
            {
              "internalType": "enum SwapAdjustmentTypes",
              "name": "swapAdjustmentType",
              "type": "uint8"
            },
            {
              "internalType": "enum PreSwapAutomationTypes",
              "name": "preSwapAutomationType",
              "type": "uint8"
            },
            {
              "components": [
                {
                  "internalType": "enum PostSwapAutomationTypes",
                  "name": "postSwapAutomationType",
                  "type": "uint8"
                },
                {
                  "internalType": "address",
                  "name": "destination",
                  "type": "address"
                },
                {
                  "internalType": "uint256",
                  "name": "basisPoints",
                  "type": "uint256"
                }
              ],
              "internalType": "struct PostSwapAutomationParams[]",
              "name": "postSwapAutomationParams",
              "type": "tuple[]"
            },
            {
              "internalType": "enum FinaliserTypes",
              "name": "finaliserType",
              "type": "uint8"
            },
            {
              "internalType": "enum ConditionTypes",
              "name": "triggerCreationConditionType",
              "type": "uint8"
            },
            {
              "internalType": "enum ConditionTypes",
              "name": "performSwapConditionType",
              "type": "uint8"
            },
            {
              "internalType": "enum ConditionTypes",
              "name": "finaliseVaultConditionType",
              "type": "uint8"
            },
            {
              "internalType": "bool",
              "name": "simulation",
              "type": "bool"
            },
            {
              "internalType": "address",
              "name": "referenceVaultAddress",
              "type": "address"
            }
          ],
          "internalType": "struct CreateVaultParams",
          "name": "createVaultParams",
          "type": "tuple"
        }
      ],
      "name": "createVault",
      "outputs": [
        {
          "internalType": "address",
          "name": "",
          "type": "address"
        }
      ],
      "stateMutability": "nonpayable",
      "type": "function"
    },
    {
      "inputs": [
        {
          "internalType": "address",
          "name": "owner",
          "type": "address"
        }
      ],
      "name": "getVaultsByAddress",
      "outputs": [
        {
          "internalType": "contract Vault[]",
          "name": "",
          "type": "address[]"
        }
      ],
      "stateMutability": "view",
      "type": "function"
    }
  ],
  "bytecode": "0x6080346100a1576001600160401b0390601f61289438819003918201601f19168301918483118484101761008b578084926020946040528339810103126100a157516001600160a01b03811691908290036100a157604051602081019182118183101761008b5782916040525260018060a01b031960005416176000556040516127ed90816100a78239f35b634e487b7160e01b600052604160045260246000fd5b600080fdfe610120604052600436101561001357600080fd5b60008060c052803560e01c806312fa145a146101045763b11e2beb1461003857600080fd5b346100fe57602090816003193601126100fe576001600160a01b039060043582811691908290036100fb5750829060c051526001808252604060c051209260405180848654918281520190819660c0515260c05190868220915b8181106100e657505050816100a89103826110ac565b60405193808501918186525180925260408501959260c051905b8382106100cf5786880387f35b8451811688529682019693820193908501906100c2565b82548616845292870192918601918601610092565b80fd5b60c05180fd5b50346100fb5760031960203682011261107e5767ffffffffffffffff6004351161107e576101e090600435360301126100fb575061030060405261014b60048035016110ce565b6101205261015d6024600435016110ce565b6101405261016f6004356044016110ce565b6101605260043560648101356101805260848101356101a05260a48101356101c052600160c49091013510156100fe5760043560c48101356101e05260e4013560038110156100fe5761020052600435610104013567ffffffffffffffff81116100fe5736602382600435010112156100fe576004818135010135906101f4826110e7565b9161020260405193846110ac565b80835260208301913660246060840283600435010101116100fe57916024836004350101925b602460608402826004350101018410611013576102208590526002600435610124013510156100fe576004803561012481013561024052610144013510156100fe576004803561014481013561026052610164013510156100fe576004803561016481013561028052610184013510156100fe576004356101848101356102a0526101a4013580151590036100fe576004356101a48101356102c0526102d1906101c4016110ce565b6102e05260405167ffffffffffffffff61163b820190811190821117610e375761163b61117d823960c051908061163b8101039082f0908115611007575060c051546001600160a01b0390811660e0529081166080526102e0516102005191169061033b816110ff565b6040519163f812356960e01b83526080516004840152602483015261035f816110ff565b604482015260208160648173__$62d2bb7c16ea2e703029d6d894b39d09da$__5af4908115610bb85760c05191610fcd575b506101e051906001821015610ec957604051916331c2bab160e21b835260e0516004840152602483015260208260448173__$63d2d45f0bcc17299329de7495d9517121$__5af4918215610bb85760c05192610f91575b50610240516002811015610ec9576040519063251ff04760e01b8252600482015260208160248173__$a52122b6ce1138c328b308246a77f065ff$__5af4908115610bb85760c05191610f57575b50610260516004811015610ec95760206104649160405180938192631b60980f60e11b835260048301611133565b038173__$17868bac2f39e54f8eaf3522f4846cc1c4$__5af4908115610bb85760c05191610f1d575b5061028051906004821015610ec95760206104bc9260405180948192631b60980f60e11b835260048301611133565b038173__$17868bac2f39e54f8eaf3522f4846cc1c4$__5af4918215610bb85760c05192610ee1575b506102a051926004841015610ec95760206105149460405180968192631b60980f60e11b835260048301611133565b038173__$17868bac2f39e54f8eaf3522f4846cc1c4$__5af4938415610bb85760c05194610e8d575b5061010061012001516040519063feab6d6960e01b825260448201608051600484015260406024840152815180915260206064840192019060c0515b818110610e4f57505050818060c05192038173__$62d2bb7c16ea2e703029d6d894b39d09da$__5af4908115610bb85760c05191610d20575b506080610120015160a05260a061012001519560018060a01b0361012051169760c0519860018060a01b038a541660018060a01b03602061012001511660018060a01b0360406101200151169160606101200151936101a0610120015115159c60018060a01b036101c06101200151169e604051806101005267ffffffffffffffff6102008201918210911117610b8c575061010051610200810160405260a0519052602061010051015260406101005101526060610100510152608061010051015260a061010051015260c061010051015260018060a01b031660e061010051015260018060a01b03166101008051015261012061010051015260018060a01b031661014061010051015260018060a01b031661016061010051015260018060a01b031661018061010051015260018060a01b03166101a06101005101526101c06101005101526101e061010051015260405163ee9db7eb60e01b815260e051600482015260406024820152610100515160448201526020610100510151606482015260018060a01b03604061010051015116608482015260018060a01b0360606101005101511660a482015260018060a01b0360806101005101511660c482015260018060a01b0360a06101005101511660e482015260c061010051015161010482015260018060a01b0360e06101005101511661012482015260018060a01b03610100805101511661014482015280610120610100510151610200610164830152610244820181518091526020610264840192019060c0515b818110610cfc57610100805161014001516001600160a01b039081166101848801528151610160015181166101a48801528151610180015181166101c488015281516101a0015181166101e488015281516101c00151151561020488015290516101e0015116610224860152846020818087038173__$61d19b6f65968051678b4a6a910ec4ce05$__5af4908115610bb85760c05191610cc1575b5015610c7d5760405163bcaa0c5560e01b815260048082015260208160248160e0515afa908115610bb85760c05191610c43575b506001600160a01b0381163b156100fe576040516367561d9360e01b8152608051600482015260c05190918290602490829084906001600160a01b03165af18015610bb857610c34575b5060405163bcaa0c5560e01b81526003600482015260208160248160e0515afa908115610bb85760c05191610bfa575b506001600160a01b0381163b156100fe57604051630403595960e01b8152608051600482015260c05190918290602490829084906001600160a01b03165af18015610bb857610be5575b506080513b156100fe5760408051638956e86d60e01b81526020600482018190526101008051516024840152805182015160448401528051909301516001600160a01b03908116606484015283516060015181166084840152835160800151811660a4840152835160a00151811660c4840152835160c09081015160e4850152845160e00151821661010485015284518501519091166101248401529251610120015161020061014484015280516102248401819052935192936102448501939190920191905b818110610bc5575050610100805161014001516001600160a01b039081166101648601528151610160015181166101848601528151610180015181166101a486015281516101a0015181166101c486015281516101c0015115156101e486015290516101e00151166102048401525060c051608051909183919082900390829084905af18015610bb857610ba3575b5060018060a01b03610120511660c05152600160205260c0516040812080549168010000000000000000831015610b8c575060018201808255821015610b74577f2e49a5810fda2439a23771848b4acec786b0a64d4de3d124ac57fc8739c388759160209160c051528160c051200160805190816bffffffffffffffffffffffff60a01b825416179055604051908152a160206040516080518152f35b634e487b7160e01b60c051526032600452602460c051fd5b634e487b7160e01b9052604160045260c051602490fd5b610bac90611082565b60c0518015610ad75780fd5b6040513d60c051823e3d90fd5b9091926020608082610bda6001948851611146565b019401929101610a48565b610bee90611082565b60c05180156109815780fd5b90506020813d602011610c2c575b81610c15602093836110ac565b810103126100fe57610c269061111f565b81610937565b3d9150610c08565b610c3d90611082565b80610907565b90506020813d602011610c75575b81610c5e602093836110ac565b810103126100fe57610c6f9061111f565b816108bd565b3d9150610c51565b606460405162461bcd60e51b815260206004820152602060248201527f696e76616c6964206665652074616b696e6720636f6e66696775726174696f6e6044820152fd5b90506020813d602011610cf4575b81610cdc602093836110ac565b810103126100fe575180151581036100fe5781610889565b3d9150610ccf565b919350916020608082610d126001948851611146565b0194019101918493926107ee565b903d8091833e610d3081836110ac565b60208282810103126100fe5781519067ffffffffffffffff82116100fe57808301601f8385010112156100fe578183015190610d6b826110e7565b93610d7960405195866110ac565b828552602085019382820160208560071b8385010101116100fe5793602085830101945b60208560071b82850101018610610dba57505050505050876105b2565b60808685850103126100fe5760405180608081011067ffffffffffffffff608083011117610e375760808101604052610df28761111f565b8152610e006020880161111f565b602082015260408701516040820152606087015160038110156100fe57602093828592606060809501528152019601959150610d9d565b634e487b7160e01b60c051526041600452602460c051fd5b90919260206060600192604087518051610e68816110ff565b8352858060a01b03858201511685840152015160408201520194019101919091610579565b9093506020813d602011610ec1575b81610ea9602093836110ac565b810103126100fe57610eba9061111f565b928661053d565b3d9150610e9c565b634e487b7160e01b60c051526021600452602460c051fd5b9091506020813d602011610f15575b81610efd602093836110ac565b810103126100fe57610f0e9061111f565b90856104e5565b3d9150610ef0565b90506020813d602011610f4f575b81610f38602093836110ac565b810103126100fe57610f499061111f565b8461048d565b3d9150610f2b565b90506020813d602011610f89575b81610f72602093836110ac565b810103126100fe57610f839061111f565b83610436565b3d9150610f65565b9091506020813d602011610fc5575b81610fad602093836110ac565b810103126100fe57610fbe9061111f565b90826103e8565b3d9150610fa0565b90506020813d602011610fff575b81610fe8602093836110ac565b810103126100fe57610ff99061111f565b81610391565b3d9150610fdb565b604051903d90823e3d90fd5b6060843603126100fe5760405180606081011067ffffffffffffffff606083011117610e3757606081016040526003853510156100fe5760606020602494829388358152611062838a016110ce565b8382015260408901356040820152815201950194925050610228565b5080fd5b67ffffffffffffffff811161109657604052565b634e487b7160e01b600052604160045260246000fd5b90601f8019910116810190811067ffffffffffffffff82111761109657604052565b35906001600160a01b03821682036110e257565b600080fd5b67ffffffffffffffff81116110965760051b60200190565b6003111561110957565b634e487b7160e01b600052602160045260246000fd5b51906001600160a01b03821682036110e257565b9190602083019260048210156111095752565b6060809160018060a01b03808251168552602082015116602085015260408101516040850152015191611178836110ff565b015256fe608080604052346100165761161f908161001c8239f35b600080fdfe608080604052600436101561001357600080fd5b600090813560e01c90816312065fe0146112f757508063254928d7146112d45780636146195414610c4d5780638956e86d14610588578063b6b55f25146104275763c3f909d41461006357600080fd5b3461042457806003193601126104245780610220604051610083816113b4565b8281528260208201528260408201528260608201528260808201528260a08201528260c08201528260e0820152826101008201526060610120820152826101408201528261016082015282610180820152826101a0820152826101c0820152826101e0820152826102008201520152604051906100ff826113b4565b6001546001600160a01b039081168352600254811660208401526003548116604084015260045460608401526005548116608084015260065460a084015260075460c0840152600854811660e084015260095416610100830152600a5461016581611407565b9061017360405192836113d1565b808252600a835282907fc65a7bb8d6351c1cf70c95a316cc6a92839c986682d98bc35f958f4883f9d2a8602084015b8284106103b35750505050610120838101918252600b546001600160a01b0390811661014080870191909152600c548216610160870152600d548216610180870152600e5482166101a0870152600f5482166101c08701526010546101e087015260115461020087015260125460ff161515610220870152604080516020808252885185168183015280890151851682840152918801518416606080830191909152880151608080830191909152880151841660a08281019190915288015160c08083019190915288015160e080830191909152880151841661010080830191909152880151909316938301939093529251610240938201939093528251610260820181905290936102808501939092019190815b81831061034d578580866102208a60018060a01b036101408201511661016085015260018060a01b036101608201511661018085015260018060a01b03610180820151166101a085015260018060a01b036101a0820151166101c085015260018060a01b036101c0820151166101e08501526101e081015161020085015261020081015182850152015115156102408301520390f35b909192936060855160018060a01b03815116835260018060a01b036020820151166020840152604081015160408401520151600381101561039f576060820152608001936020019260010191906102b7565b634e487b7160e01b83526021600452602483fd5b6040516103bf81611398565b82546001600160a01b03908116825260018401541660208201526002830154604082015260038084015460ff16908110156104105760019282602092606060049501528152019201930192906101a2565b634e487b7160e01b88526021600452602488fd5b80fd5b503461042457806020806003193601126105855760043560018060a01b038060035416926040516323b872dd60e01b8152336004820152306024820152836044820152818160648189895af1801561055d57610568575b5060085460405163095ea7b360e01b81529083166001600160a01b03811660048301526024820185905294829082908189816044810103925af1801561055d5761052f575b50506003541690823b1561052a576040516311f9fbc960e21b81526001600160a01b0392909216600483015260248201529082908290604490829084905af1801561051f5761050f5750f35b61051890611384565b6104245780f35b6040513d84823e3d90fd5b505050fd5b8161054e92903d10610556575b61054681836113d1565b8101906114b3565b5038806104c3565b503d61053c565b6040513d88823e3d90fd5b61057e90823d84116105565761054681836113d1565b503861047e565b50fd5b503461042457600319602036820112610bd85767ffffffffffffffff60043511610bd857610200809160043536030112610bd85760405190810181811067ffffffffffffffff821117610b0c576040526004356004013581526024600435013560208201526105fb6044600435016113f3565b604082015261060e6064600435016113f3565b60608201526106216084600435016113f3565b608082015261063460a4600435016113f3565b60a082015260c4600435013560c082015261065360e4600435016113f3565b60e0820152610667610104600435016113f3565b610100820152610124600435013567ffffffffffffffff8111610b08573660238260043501011215610b08576106a36004828135010135611407565b906106b160405192836113d1565b600480358201908101358084526020840192913660079290921b0160240111610c49576024816004350101915b6004803583019081013560071b016024018310610bdc5750505061012082015261070d610144600435016113f3565b610140820152610722610164600435016113f3565b610160820152610737610184600435016113f3565b61018082015261074c6101a4600435016113f3565b6101a08201526004356101c401358015159003610bd8576101c460043501356101c08201526107806101e4600435016113f3565b6101e0820152815460ff8116610b935760ff1990811660019081178455606083015181546001600160a01b03199081166001600160a01b03928316179092556040840151600280548416918316919091179055608084015160038054841691831691909117905560a084015160058054841691831691909117905560c084015160075561010084015160088054841691831691909117905560e0840151600980548416918316919091179055610140840151600b8054841691831691909117905583516010556020840151601155610160840151600d80548416918316919091179055610180840151600e805484169183169190911790556101a0840151600f805484169183169190911790556101c08401516012805491151560ff1691909416179092556101e0830151600c80549092169216919091179055815b61012082015180518210156109a5576020908260051b010151600a80549068010000000000000000821015610991576001820190556108fa90611444565b61097d57815181546001600160a01b039182166001600160a01b03199182161783556020840151600184018054919093169116179055604082015160028201556060909101516003918201918110156109695790610964929160ff8019835416911617905561141f565b6108bc565b634e487b7160e01b85526021600452602485fd5b634e487b7160e01b85526004859052602485fd5b634e487b7160e01b86526041600452602486fd5b5050606081015160405163bcaa0c5560e01b808252600360048301526001600160a01b03909216928491602081602481885afa908115610b88578391610b69575b5060018060a01b03169060208101519051823b15610b6557604051632e16ad3d60e11b8152306004820152602481019290925260448201529082908290606490829084905af1801561051f57610b51575b505060209060246040518094819382526004808301525afa90811561051f578291610b22575b5060018060a01b03169060405130602082015260208152604081019080821067ffffffffffffffff831117610b0c5781604052833b15610b0857638f72004160e01b82523060448201528260648201526060608482015280518060a4830152835b818110610af3575083948385608485858360c48698829a010152601f801991011681010301925af1801561051f5761050f5750f35b80602091840160c48382015191015201610abe565b8280fd5b634e487b7160e01b600052604160045260246000fd5b610b44915060203d602011610b4a575b610b3c81836113d1565b810190611494565b38610a5d565b503d610b32565b610b5a90611384565b610b08578238610a37565b8380fd5b610b82915060203d602011610b4a57610b3c81836113d1565b386109e6565b6040513d85823e3d90fd5b60405162461bcd60e51b815260206004820152601960248201527f7661756c7420616c726561647920696e697469616c697a6564000000000000006044820152606490fd5b5080fd5b608083360312610c455760405190610bf382611398565b610bfc846113f3565b8252610c0a602085016113f3565b602083015260408401356040830152600360608501351015610c4157606084810135908301529081526080909201916020016106de565b8680fd5b8580fd5b8480fd5b503461042457806003193601126104245760015460405163bcaa0c5560e01b8082526003600483015283926001600160a01b031690602083602481855afa928315610ea25784936112b3575b50604051630f5b5c3360e41b815230600482015291602083602481886001600160a01b0389165af192831561110e57859361127f575b506011928355600e54604051631846d2f560e31b815230600482015290602090829060249082908a906001600160a01b03165af190811561055d578691611260575b50610ead575b5050600d54604051631846d2f560e31b8152306004820152906020908290602490829088906001600160a01b03165af1908115610ea2578491610e83575b50610e13575b5050600f54604051631846d2f560e31b81523060048201529160209183916024918391906001600160a01b03165af190811561051f578291610df4575b50610da05780f35b600b5460015482916001600160a01b039081169116813b15610df0578291604483926040519485938492632d14caeb60e11b845260048401523060248401525af1801561051f5761050f57505080f35b5050fd5b610e0d915060203d6020116105565761054681836113d1565b38610d98565b546010546001600160a01b0383163b1561052a57604051632e16ad3d60e11b8152306004820152602481019290925260448201529082908290606490829084906001600160a01b03165af1801561051f57610e6f575b80610d5b565b610e7890611384565b610424578038610e69565b610e9c915060203d6020116105565761054681836113d1565b38610d55565b6040513d86823e3d90fd5b9091929350610eba6114d8565b6008546003549193916001600160a01b0391821691889116823b15610bd85760405163f3fef3a360e01b81526001600160a01b0391909116600482015260248101869052918290604490829084905af1801561125557611241575b5060209060ff60125416600014611193576024604051809481938252600260048301525afa90811561110e578591611174575b506001600160a01b0316905b60035460055460405163d5bcb9b560e01b81526001600160a01b0392831660048201529082166024820152604481018390526064810187905230608482015292602091849160a49183918a91165af191821561110e578592611139575b50610fbe906004546114cb565b600455610fcd816006546114cb565b600655835b84600a5482101561112d5750610fe781611444565b50546001600160a01b03166002610ffd83611444565b5001548381810204811484151715611119579086929160ff60125416156110a1575b6005546001600160a01b0316823b15610c49576040516311f9fbc960e21b81526001600160a01b039190911660048201526127109186029190910460248201529083908290604490829084905af1908115610b8857839161108d575b50506110869061141f565b9050610fd2565b61109690611384565b610bd857813861107b565b60055460405163095ea7b360e01b81526001600160a01b0384811660048301526127108489020460248301529091602091839160449183918a91165af1801561110e576110ef575b5061101f565b6111079060203d6020116105565761054681836113d1565b50386110e9565b6040513d87823e3d90fd5b634e487b7160e01b87526004859052602487fd5b93929150503880610d17565b9091506020813d60201161116c575b81611155602093836113d1565b81010312611167575190610fbe610fb1565b600080fd5b3d9150611148565b61118d915060203d602011610b4a57610b3c81836113d1565b38610f48565b6024604051809481938252600160048301525afa90811561110e578591611222575b5060035460405163095ea7b360e01b81526001600160a01b03928316600482018190526024820185905293929091602091839160449183918b91165af1801561055d57611203575b50610f54565b61121b9060203d6020116105565761054681836113d1565b50386111fd565b61123b915060203d602011610b4a57610b3c81836113d1565b386111b5565b9561124e60209297611384565b9590610f15565b6040513d89823e3d90fd5b611279915060203d6020116105565761054681836113d1565b38610d11565b9092506020813d6020116112ab575b8161129b602093836113d1565b81010312610c4957519138610ccf565b3d915061128e565b6112cd91935060203d602011610b4a57610b3c81836113d1565b9138610c99565b503461042457806003193601126104245760206112ef6114d8565b604051908152f35b905034610bd85781600319360112610bd8576008546003546370a0823160e01b83526001600160a01b03908116600484015260209183916024918391165afa90811561051f57829161134f575b602082604051908152f35b90506020813d821161137c575b81611369602093836113d1565b81010312610bd857602091505138611344565b3d915061135c565b67ffffffffffffffff8111610b0c57604052565b6080810190811067ffffffffffffffff821117610b0c57604052565b610240810190811067ffffffffffffffff821117610b0c57604052565b90601f8019910116810190811067ffffffffffffffff821117610b0c57604052565b35906001600160a01b038216820361116757565b67ffffffffffffffff8111610b0c5760051b60200190565b600019811461142e5760010190565b634e487b7160e01b600052601160045260246000fd5b600a5481101561147e57600a60005260021b7fc65a7bb8d6351c1cf70c95a316cc6a92839c986682d98bc35f958f4883f9d2a80190600090565b634e487b7160e01b600052603260045260246000fd5b9081602091031261116757516001600160a01b03811681036111675790565b90816020910312611167575180151581036111675790565b9190820180921161142e57565b60018060a01b03806008541690806003541660405180936370a0823160e01b825282600483015281602460209687935afa9182156115a95784916000936115b5575b50600954600754604051632702288960e01b81526001600160a01b03909316600484015260248301529293909283911681600081604481015b03925af19283156115a957600093611578575b5050818110611573575090565b905090565b8181949293943d83116115a2575b61159081836113d1565b81010312610424575051903880611566565b503d611586565b6040513d6000823e3d90fd5b9182819492943d83116115e2575b6115cd81836113d1565b8101031261042457505190839061155361151a565b503d6115c356fea26469706673582212206d7f7ae69723d8e4c88ee4963f73dde660ece0274bf43e2f77ea4eeb0ae2550a64736f6c63430008110033a26469706673582212208fc8f2bd0432ff3fc2a5f83ecbd2adf6b1c9c65cf3c60e8b411971947dbaef7064736f6c63430008110033",
  "linkReferences": {
    "src/contracts/dca/factory/libraries/AutomationBuilder.sol": {
      "AutomationBuilder": [
        {
          "length": 20,
          "start": 1043
        },
        {
          "length": 20,
          "start": 1588
        }
      ]
    },
    "src/contracts/dca/factory/libraries/ConditionBuilder.sol": {
      "ConditionBuilder": [
        {
          "length": 20,
          "start": 1295
        },
        {
          "length": 20,
          "start": 1383
        },
        {
          "length": 20,
          "start": 1471
        }
      ]
    },
    "src/contracts/dca/factory/libraries/FinaliserBuilder.sol": {
      "FinaliserBuilder": [
        {
          "length": 20,
          "start": 1208
        }
      ]
    },
    "src/contracts/dca/factory/libraries/SwapAdjustmentBuilder.sol": {
      "SwapAdjustmentBuilder": [
        {
          "length": 20,
          "start": 1130
        }
      ]
    },
    "src/contracts/dca/vault/libraries/Validation.sol": {
      "Validation": [
        {
          "length": 20,
          "start": 2315
        }
      ]
    }
  },
  "deployedLinkReferences": {
    "src/contracts/dca/factory/libraries/AutomationBuilder.sol": {
      "AutomationBuilder": [
        {
          "length": 20,
          "start": 876
        },
        {
          "length": 20,
          "start": 1421
        }
      ]
    },
    "src/contracts/dca/factory/libraries/ConditionBuilder.sol": {
      "ConditionBuilder": [
        {
          "length": 20,
          "start": 1128
        },
        {
          "length": 20,
          "start": 1216
        },
        {
          "length": 20,
          "start": 1304
        }
      ]
    },
    "src/contracts/dca/factory/libraries/FinaliserBuilder.sol": {
      "FinaliserBuilder": [
        {
          "length": 20,
          "start": 1041
        }
      ]
    },
    "src/contracts/dca/factory/libraries/SwapAdjustmentBuilder.sol": {
      "SwapAdjustmentBuilder": [
        {
          "length": 20,
          "start": 963
        }
      ]
    },
    "src/contracts/dca/vault/libraries/Validation.sol": {
      "Validation": [
        {
          "length": 20,
          "start": 2148
        }
      ]
    }
  }
}