{
  "_format": "hh-sol-artifact-1",
  "contractName": "Vault",
  "sourceName": "src/contracts/dca/vault/Vault.sol",
  "abi": [
    {
      "inputs": [],
      "stateMutability": "nonpayable",
      "type": "constructor"
    },
    {
      "anonymous": false,
      "inputs": [
        {
          "indexed": false,
          "internalType": "bool",
          "name": "success",
          "type": "bool"
        }
      ],
      "name": "DidFinalise",
      "type": "event"
    },
    {
      "inputs": [
        {
          "internalType": "uint256",
          "name": "amount",
          "type": "uint256"
        }
      ],
      "name": "deposit",
      "outputs": [],
      "stateMutability": "nonpayable",
      "type": "function"
    },
    {
      "inputs": [],
      "name": "execute",
      "outputs": [],
      "stateMutability": "nonpayable",
      "type": "function"
    },
    {
      "inputs": [],
      "name": "getBalance",
      "outputs": [
        {
          "internalType": "uint256",
          "name": "",
          "type": "uint256"
        }
      ],
      "stateMutability": "view",
      "type": "function"
    },
    {
      "inputs": [],
      "name": "getConfig",
      "outputs": [
        {
          "components": [
            {
              "internalType": "address",
              "name": "addressProviderAddress",
              "type": "address"
            },
            {
              "internalType": "address",
              "name": "owner",
              "type": "address"
            },
            {
              "internalType": "address",
              "name": "tokenIn",
              "type": "address"
            },
            {
              "internalType": "uint256",
              "name": "totalTokenInSent",
              "type": "uint256"
            },
            {
              "internalType": "address",
              "name": "tokenOut",
              "type": "address"
            },
            {
              "internalType": "uint256",
              "name": "totalTokenOutReceived",
              "type": "uint256"
            },
            {
              "internalType": "uint256",
              "name": "swapAmount",
              "type": "uint256"
            },
            {
              "internalType": "address",
              "name": "preSwapAutomationAddress",
              "type": "address"
            },
            {
              "internalType": "address",
              "name": "swapAdjustmentAddress",
              "type": "address"
            },
            {
              "components": [
                {
                  "internalType": "address",
                  "name": "postSwapAutomationAddress",
                  "type": "address"
                },
                {
                  "internalType": "address",
                  "name": "destination",
                  "type": "address"
                },
                {
                  "internalType": "uint256",
                  "name": "basisPoints",
                  "type": "uint256"
                },
                {
                  "internalType": "enum PostSwapAutomationTypes",
                  "name": "postSwapAutomationType",
                  "type": "uint8"
                }
              ],
              "internalType": "struct PostSwapConfig[]",
              "name": "postSwapAutomations",
              "type": "tuple[]"
            },
            {
              "internalType": "address",
              "name": "finaliserAddress",
              "type": "address"
            },
            {
              "internalType": "address",
              "name": "referenceVaultAddress",
              "type": "address"
            },
            {
              "internalType": "address",
              "name": "triggerCreationConditionAddress",
              "type": "address"
            },
            {
              "internalType": "address",
              "name": "performSwapConditionAddress",
              "type": "address"
            },
            {
              "internalType": "address",
              "name": "finaliseVaultConditionAddress",
              "type": "address"
            },
            {
              "internalType": "uint256",
              "name": "timeInterval",
              "type": "uint256"
            },
            {
              "internalType": "uint256",
              "name": "targetTime",
              "type": "uint256"
            },
            {
              "internalType": "bool",
              "name": "simulation",
              "type": "bool"
            }
          ],
          "internalType": "struct Config",
          "name": "",
          "type": "tuple"
        }
      ],
      "stateMutability": "view",
      "type": "function"
    },
    {
      "inputs": [],
      "name": "getSwapAmount",
      "outputs": [
        {
          "internalType": "uint256",
          "name": "",
          "type": "uint256"
        }
      ],
      "stateMutability": "nonpayable",
      "type": "function"
    },
    {
      "inputs": [
        {
          "components": [
            {
              "internalType": "uint256",
              "name": "timeInterval",
              "type": "uint256"
            },
            {
              "internalType": "uint256",
              "name": "targetTime",
              "type": "uint256"
            },
            {
              "internalType": "address",
              "name": "owner",
              "type": "address"
            },
            {
              "internalType": "address",
              "name": "addressProviderAddress",
              "type": "address"
            },
            {
              "internalType": "address",
              "name": "tokenIn",
              "type": "address"
            },
            {
              "internalType": "address",
              "name": "tokenOut",
              "type": "address"
            },
            {
              "internalType": "uint256",
              "name": "swapAmount",
              "type": "uint256"
            },
            {
              "internalType": "address",
              "name": "swapAdjustmentAddress",
              "type": "address"
            },
            {
              "internalType": "address",
              "name": "preSwapAutomationAddress",
              "type": "address"
            },
            {
              "components": [
                {
                  "internalType": "address",
                  "name": "postSwapAutomationAddress",
                  "type": "address"
                },
                {
                  "internalType": "address",
                  "name": "destination",
                  "type": "address"
                },
                {
                  "internalType": "uint256",
                  "name": "basisPoints",
                  "type": "uint256"
                },
                {
                  "internalType": "enum PostSwapAutomationTypes",
                  "name": "postSwapAutomationType",
                  "type": "uint8"
                }
              ],
              "internalType": "struct PostSwapConfig[]",
              "name": "postSwapAutomations",
              "type": "tuple[]"
            },
            {
              "internalType": "address",
              "name": "finaliserAddress",
              "type": "address"
            },
            {
              "internalType": "address",
              "name": "triggerCreationConditionAddress",
              "type": "address"
            },
            {
              "internalType": "address",
              "name": "performSwapConditionAddress",
              "type": "address"
            },
            {
              "internalType": "address",
              "name": "finaliseVaultConditionAddress",
              "type": "address"
            },
            {
              "internalType": "bool",
              "name": "simulation",
              "type": "bool"
            },
            {
              "internalType": "address",
              "name": "referenceVaultAddress",
              "type": "address"
            }
          ],
          "internalType": "struct VaultInitParams",
          "name": "vaultInitParams",
          "type": "tuple"
        }
      ],
      "name": "initialize",
      "outputs": [],
      "stateMutability": "nonpayable",
      "type": "function"
    }
  ],
  "bytecode": "0x608080604052346100165761161f908161001c8239f35b600080fdfe608080604052600436101561001357600080fd5b600090813560e01c90816312065fe0146112f757508063254928d7146112d45780636146195414610c4d5780638956e86d14610588578063b6b55f25146104275763c3f909d41461006357600080fd5b3461042457806003193601126104245780610220604051610083816113b4565b8281528260208201528260408201528260608201528260808201528260a08201528260c08201528260e0820152826101008201526060610120820152826101408201528261016082015282610180820152826101a0820152826101c0820152826101e0820152826102008201520152604051906100ff826113b4565b6001546001600160a01b039081168352600254811660208401526003548116604084015260045460608401526005548116608084015260065460a084015260075460c0840152600854811660e084015260095416610100830152600a5461016581611407565b9061017360405192836113d1565b808252600a835282907fc65a7bb8d6351c1cf70c95a316cc6a92839c986682d98bc35f958f4883f9d2a8602084015b8284106103b35750505050610120838101918252600b546001600160a01b0390811661014080870191909152600c548216610160870152600d548216610180870152600e5482166101a0870152600f5482166101c08701526010546101e087015260115461020087015260125460ff161515610220870152604080516020808252885185168183015280890151851682840152918801518416606080830191909152880151608080830191909152880151841660a08281019190915288015160c08083019190915288015160e080830191909152880151841661010080830191909152880151909316938301939093529251610240938201939093528251610260820181905290936102808501939092019190815b81831061034d578580866102208a60018060a01b036101408201511661016085015260018060a01b036101608201511661018085015260018060a01b03610180820151166101a085015260018060a01b036101a0820151166101c085015260018060a01b036101c0820151166101e08501526101e081015161020085015261020081015182850152015115156102408301520390f35b909192936060855160018060a01b03815116835260018060a01b036020820151166020840152604081015160408401520151600381101561039f576060820152608001936020019260010191906102b7565b634e487b7160e01b83526021600452602483fd5b6040516103bf81611398565b82546001600160a01b03908116825260018401541660208201526002830154604082015260038084015460ff16908110156104105760019282602092606060049501528152019201930192906101a2565b634e487b7160e01b88526021600452602488fd5b80fd5b503461042457806020806003193601126105855760043560018060a01b038060035416926040516323b872dd60e01b8152336004820152306024820152836044820152818160648189895af1801561055d57610568575b5060085460405163095ea7b360e01b81529083166001600160a01b03811660048301526024820185905294829082908189816044810103925af1801561055d5761052f575b50506003541690823b1561052a576040516311f9fbc960e21b81526001600160a01b0392909216600483015260248201529082908290604490829084905af1801561051f5761050f5750f35b61051890611384565b6104245780f35b6040513d84823e3d90fd5b505050fd5b8161054e92903d10610556575b61054681836113d1565b8101906114b3565b5038806104c3565b503d61053c565b6040513d88823e3d90fd5b61057e90823d84116105565761054681836113d1565b503861047e565b50fd5b503461042457600319602036820112610bd85767ffffffffffffffff60043511610bd857610200809160043536030112610bd85760405190810181811067ffffffffffffffff821117610b0c576040526004356004013581526024600435013560208201526105fb6044600435016113f3565b604082015261060e6064600435016113f3565b60608201526106216084600435016113f3565b608082015261063460a4600435016113f3565b60a082015260c4600435013560c082015261065360e4600435016113f3565b60e0820152610667610104600435016113f3565b610100820152610124600435013567ffffffffffffffff8111610b08573660238260043501011215610b08576106a36004828135010135611407565b906106b160405192836113d1565b600480358201908101358084526020840192913660079290921b0160240111610c49576024816004350101915b6004803583019081013560071b016024018310610bdc5750505061012082015261070d610144600435016113f3565b610140820152610722610164600435016113f3565b610160820152610737610184600435016113f3565b61018082015261074c6101a4600435016113f3565b6101a08201526004356101c401358015159003610bd8576101c460043501356101c08201526107806101e4600435016113f3565b6101e0820152815460ff8116610b935760ff1990811660019081178455606083015181546001600160a01b03199081166001600160a01b03928316179092556040840151600280548416918316919091179055608084015160038054841691831691909117905560a084015160058054841691831691909117905560c084015160075561010084015160088054841691831691909117905560e0840151600980548416918316919091179055610140840151600b8054841691831691909117905583516010556020840151601155610160840151600d80548416918316919091179055610180840151600e805484169183169190911790556101a0840151600f805484169183169190911790556101c08401516012805491151560ff1691909416179092556101e0830151600c80549092169216919091179055815b61012082015180518210156109a5576020908260051b010151600a80549068010000000000000000821015610991576001820190556108fa90611444565b61097d57815181546001600160a01b039182166001600160a01b03199182161783556020840151600184018054919093169116179055604082015160028201556060909101516003918201918110156109695790610964929160ff8019835416911617905561141f565b6108bc565b634e487b7160e01b85526021600452602485fd5b634e487b7160e01b85526004859052602485fd5b634e487b7160e01b86526041600452602486fd5b5050606081015160405163bcaa0c5560e01b808252600360048301526001600160a01b03909216928491602081602481885afa908115610b88578391610b69575b5060018060a01b03169060208101519051823b15610b6557604051632e16ad3d60e11b8152306004820152602481019290925260448201529082908290606490829084905af1801561051f57610b51575b505060209060246040518094819382526004808301525afa90811561051f578291610b22575b5060018060a01b03169060405130602082015260208152604081019080821067ffffffffffffffff831117610b0c5781604052833b15610b0857638f72004160e01b82523060448201528260648201526060608482015280518060a4830152835b818110610af3575083948385608485858360c48698829a010152601f801991011681010301925af1801561051f5761050f5750f35b80602091840160c48382015191015201610abe565b8280fd5b634e487b7160e01b600052604160045260246000fd5b610b44915060203d602011610b4a575b610b3c81836113d1565b810190611494565b38610a5d565b503d610b32565b610b5a90611384565b610b08578238610a37565b8380fd5b610b82915060203d602011610b4a57610b3c81836113d1565b386109e6565b6040513d85823e3d90fd5b60405162461bcd60e51b815260206004820152601960248201527f7661756c7420616c726561647920696e697469616c697a6564000000000000006044820152606490fd5b5080fd5b608083360312610c455760405190610bf382611398565b610bfc846113f3565b8252610c0a602085016113f3565b602083015260408401356040830152600360608501351015610c4157606084810135908301529081526080909201916020016106de565b8680fd5b8580fd5b8480fd5b503461042457806003193601126104245760015460405163bcaa0c5560e01b8082526003600483015283926001600160a01b031690602083602481855afa928315610ea25784936112b3575b50604051630f5b5c3360e41b815230600482015291602083602481886001600160a01b0389165af192831561110e57859361127f575b506011928355600e54604051631846d2f560e31b815230600482015290602090829060249082908a906001600160a01b03165af190811561055d578691611260575b50610ead575b5050600d54604051631846d2f560e31b8152306004820152906020908290602490829088906001600160a01b03165af1908115610ea2578491610e83575b50610e13575b5050600f54604051631846d2f560e31b81523060048201529160209183916024918391906001600160a01b03165af190811561051f578291610df4575b50610da05780f35b600b5460015482916001600160a01b039081169116813b15610df0578291604483926040519485938492632d14caeb60e11b845260048401523060248401525af1801561051f5761050f57505080f35b5050fd5b610e0d915060203d6020116105565761054681836113d1565b38610d98565b546010546001600160a01b0383163b1561052a57604051632e16ad3d60e11b8152306004820152602481019290925260448201529082908290606490829084906001600160a01b03165af1801561051f57610e6f575b80610d5b565b610e7890611384565b610424578038610e69565b610e9c915060203d6020116105565761054681836113d1565b38610d55565b6040513d86823e3d90fd5b9091929350610eba6114d8565b6008546003549193916001600160a01b0391821691889116823b15610bd85760405163f3fef3a360e01b81526001600160a01b0391909116600482015260248101869052918290604490829084905af1801561125557611241575b5060209060ff60125416600014611193576024604051809481938252600260048301525afa90811561110e578591611174575b506001600160a01b0316905b60035460055460405163d5bcb9b560e01b81526001600160a01b0392831660048201529082166024820152604481018390526064810187905230608482015292602091849160a49183918a91165af191821561110e578592611139575b50610fbe906004546114cb565b600455610fcd816006546114cb565b600655835b84600a5482101561112d5750610fe781611444565b50546001600160a01b03166002610ffd83611444565b5001548381810204811484151715611119579086929160ff60125416156110a1575b6005546001600160a01b0316823b15610c49576040516311f9fbc960e21b81526001600160a01b039190911660048201526127109186029190910460248201529083908290604490829084905af1908115610b8857839161108d575b50506110869061141f565b9050610fd2565b61109690611384565b610bd857813861107b565b60055460405163095ea7b360e01b81526001600160a01b0384811660048301526127108489020460248301529091602091839160449183918a91165af1801561110e576110ef575b5061101f565b6111079060203d6020116105565761054681836113d1565b50386110e9565b6040513d87823e3d90fd5b634e487b7160e01b87526004859052602487fd5b93929150503880610d17565b9091506020813d60201161116c575b81611155602093836113d1565b81010312611167575190610fbe610fb1565b600080fd5b3d9150611148565b61118d915060203d602011610b4a57610b3c81836113d1565b38610f48565b6024604051809481938252600160048301525afa90811561110e578591611222575b5060035460405163095ea7b360e01b81526001600160a01b03928316600482018190526024820185905293929091602091839160449183918b91165af1801561055d57611203575b50610f54565b61121b9060203d6020116105565761054681836113d1565b50386111fd565b61123b915060203d602011610b4a57610b3c81836113d1565b386111b5565b9561124e60209297611384565b9590610f15565b6040513d89823e3d90fd5b611279915060203d6020116105565761054681836113d1565b38610d11565b9092506020813d6020116112ab575b8161129b602093836113d1565b81010312610c4957519138610ccf565b3d915061128e565b6112cd91935060203d602011610b4a57610b3c81836113d1565b9138610c99565b503461042457806003193601126104245760206112ef6114d8565b604051908152f35b905034610bd85781600319360112610bd8576008546003546370a0823160e01b83526001600160a01b03908116600484015260209183916024918391165afa90811561051f57829161134f575b602082604051908152f35b90506020813d821161137c575b81611369602093836113d1565b81010312610bd857602091505138611344565b3d915061135c565b67ffffffffffffffff8111610b0c57604052565b6080810190811067ffffffffffffffff821117610b0c57604052565b610240810190811067ffffffffffffffff821117610b0c57604052565b90601f8019910116810190811067ffffffffffffffff821117610b0c57604052565b35906001600160a01b038216820361116757565b67ffffffffffffffff8111610b0c5760051b60200190565b600019811461142e5760010190565b634e487b7160e01b600052601160045260246000fd5b600a5481101561147e57600a60005260021b7fc65a7bb8d6351c1cf70c95a316cc6a92839c986682d98bc35f958f4883f9d2a80190600090565b634e487b7160e01b600052603260045260246000fd5b9081602091031261116757516001600160a01b03811681036111675790565b90816020910312611167575180151581036111675790565b9190820180921161142e57565b60018060a01b03806008541690806003541660405180936370a0823160e01b825282600483015281602460209687935afa9182156115a95784916000936115b5575b50600954600754604051632702288960e01b81526001600160a01b03909316600484015260248301529293909283911681600081604481015b03925af19283156115a957600093611578575b5050818110611573575090565b905090565b8181949293943d83116115a2575b61159081836113d1565b81010312610424575051903880611566565b503d611586565b6040513d6000823e3d90fd5b9182819492943d83116115e2575b6115cd81836113d1565b8101031261042457505190839061155361151a565b503d6115c356fea26469706673582212206d7f7ae69723d8e4c88ee4963f73dde660ece0274bf43e2f77ea4eeb0ae2550a64736f6c63430008110033",
  "linkReferences": {},
  "deployedLinkReferences": {}
}